:04000000AEEF3EF031
:107D3C00000E936E900E946E12009EEC3EF0B7EC1B
:107D4C003EF01200016EACA2FED701C0ADFF1200D6
:107D5C0000EE24F0180EEE6AE806FDE10001AEEF2D
:107D6C003FF0200EAC6E0C0EAF6E000EA76EAB8EFD
:107D7C00AB9CAB88120001C003F00250046EACA2A5
:107D8C00FED703C0ADFFACA2FED704C0ADFF1200FE
:107D9C00C79EC79CC69EC688C696C694C682C69009
:107DAC009D96C68A8B828B808B8412000B0E1724B7
:107DBC00196EE40E18201A6E8B9219C001F01AC0BD
:107DCC0002F02DEC3FF001C01BF002C01CF08B82C6
:107DDC001BC017F01CC018F012008B92E40E026E40
:107DEC00170E016E2DEC3FF0040E196ED890023276
:107DFC000132192EFBD7FF0E01141A6E0F0E02144E
:107E0C001B6E8B821AC017F01BC018F0120009C031
:107E1C0001F00AC002F0000E046E0A0E036E6CEC48
:107E2C003FF001C00CF002C00DF008D01A0E0B6E22
:107E3C00F80EE82EFED70B2EFCD700D00C06D8A0DF
:107E4C000D060C28F3E10D28D8B41200EFD7000E64
:107E5C00106E000E0F6E000E126E000E116E0150A1
:107E6C00096E0A6A01C003F002C004F004C003F0FA
:107E7C00046A03500B6E0C6A0BC0C9FFC7A0FED777
:107E8C00C9CF05F0066A09C0C9FFC7A0FED7C9CF84
:107E9C0007F0086A11C0C9FFC7A0FED7C9CF13F0FD
:107EAC00146A0FC0C9FFC7A0FED7C9CF15F0166A58
:107EBC001350046E036A155003240D6E16500420E3
:107ECC000E6E0DC001F00EC002F01200000E066E18
:107EDC0004AE06D0036C041ED8B0042A010E066E44
:107EEC0002AE06D0016C021ED8B0022A010E061A90
:107EFC00000E086E000E076E03500410D8B41CD090
:107F0C00010E056E04D0D89003360436052A04AE53
:107F1C00FAD7D890073608360350015C0450025843
:107F2C00D8A005D00350015E0450025A0780D890A7
:107F3C0004320332052EEDD70650D8B404D0076CAA
:107F4C00081ED8B0082A07C001F008C002F01200C1
:107F5C00010E0A6EF40E096E0DEC3FF0A3EC3EF030
:107F6C00CEEC3EF0670E236E030E1E6EFC0E1D6EE5
:107F7C00690E2318D8A413D0690EA8EC3EF0000E9D
:107F8C00186E010E176EF3EC3EF017C01FF018C000
:107F9C0020F01FC001F020C002F0C1EC3EF0730EC7
:107FAC002318D8A413D0730EA8EC3EF0000E186E54
:107FBC00000E176EDCEC3EF017C021F018C022F05A
:107FCC0021C001F022C002F0C1EC3EF0660E231875
:107FDC00D8A409D0660EA8EC3EF01DC001F01EC05E
:107FEC0002F0C1EC3EF0010E0A6EF40E096E0DECBF
:047FFC003FF0BED7BD
:020000040020DA
:08000000FFFFFFFFFFFFFFFF00
:020000040030CA
:0E0000001D037F7CFF8991FF0FC00FE00F40B2
:00000001FF
