:0400000087EF00F096
:100008005B82FACF23F0FBCF24F0E9CF25F0EACFCB
:1000180026F0E1CF27F0E2CF28F0D9CF29F0DACFC8
:100028002AF0F3CF2BF0F4CF2CF0F6CF2DF0F7CF4A
:100038002EF0F8CF2FF0F5CF30F05BC031F05CC078
:1000480032F05DC033F05EC034F0F2B2F2A819D0DD
:100058007C0E176E000E186E7EEC07F0550E176EAC
:10006800000E186E000E1A6E080E196E000E1C6E29
:10007800030E1B6E000E1E6E010E1D6EFCEC07F0CB
:10008800F292F0B0F0A619D07C0E176E000E186E22
:10009800FDEC06F04F0E176E000E186E000E1A6E6D
:1000A800080E196E000E1C6E030E1B6E000E1E6EDF
:1000B800020E1D6EFCEC07F0F09034C05EF033C009
:1000C8005DF032C05CF031C05BF030C0F5FF2FC08E
:1000D800F8FF2EC0F7FF2DC0F6FF2CC0F4FF2BC091
:1000E800F3FF2AC0DAFF29C0D9FF28C0E2FF27C0E2
:1000F800E1FF26C0EAFF25C0E9FF24C0FBFF23C0BB
:10010800FAFF5B921100A4EF08F020EE60F010EE09
:10011800D8F00F0EDBCFE3FFE806FCE2FF0E00018C
:10012800D96FFE0ED86F1F0EDB6FDA69010EDD6F17
:10013800000EDC6F210EDF6F210EDE6F010EE16F06
:10014800F40EE06F010EE36FF40EE26F020EE56F3E
:10015800580EE46F020EE76F580EE66F000EC36F7D
:10016800800EC26F000EC56F080EC46FD80EC66F22
:10017800000EC76F000EC96F000EC86FD6C0CAF058
:10018800D7C0CBF0E7EC05F0FF0E0001D96FFB0EEE
:10019800D86F1F0EDB6FDA69010EDD6F000EDC6FA2
:1001A800210EDF6F210EDE6F010EE16FF40EE06F9E
:1001B800010EE36FF40EE26F020EE56F580EE46F66
:1001C800020EE76F580EE66F000EC36F880EC26FFF
:1001D800000EC56F080EC46FD80EC66F000EC76F2D
:1001E800000EC96F000EC86FD6C0CAF0D7C0CBF0DA
:1001F800E7EC05F0FF0E0001D96FEF0ED86F1F0E68
:10020800DB6FDA69010EDD6F000EDC6F210EDF6F28
:10021800210EDE6F010EE16FF40EE06F010EE36F49
:10022800F40EE26F020EE56F580EE46F020EE76FF0
:10023800580EE66F000EC36F900EC26F000EC56FAA
:10024800080EC46FD80EC66F000EC76F000EC96FB8
:10025800000EC86FD6C0CAF0D7C0CBF0E7EC05F0E7
:10026800FE0E0001D96FD8691F0EDB6FDA69010E27
:10027800DD6F000EDC6F210EDF6F210EDE6F010EC9
:10028800E16FF40EE06F010EE36FF40EE26F020E01
:10029800E56F580EE46F020EE76F580EE66F000E1A
:1002A800C36F980EC26F000EC56F080EC46FD80ECC
:1002B800C66F000EC76F000EC96F000EC86FD6C09C
:1002C800CAF0D7C0CBF0E7EC05F00001D869D969CE
:1002D8003F0EDB6FDA69000EDD6F000EDC6F260E55
:1002E800DF6F260EDE6F0F0EE16FA00EE06F090EB6
:1002F800E36FC40EE26F0F0EE56FA00EE46F0F0EF2
:10030800E76FA00EE66F000EC36FA00EC26F000E5F
:10031800C56F080EC46FD80EC66F000EC76F000EEB
:10032800C96F000EC86FD6C0CAF0D7C0CBF0E7ECD3
:1003380005F00001D869D9693F0EDB6FDA69000E54
:10034800DD6F000EDC6F260EDF6F260EDE6F0F0EE0
:10035800E16FA00EE06F090EE36FC40EE26F0F0E9F
:10036800E56FA00EE46F0F0EE76FA00EE66F000EAC
:10037800C36FA80EC26F000EC56F080EC46FD80EEB
:10038800C66F000EC76F000EC96F000EC86FD6C0CB
:10039800CAF0D7C0CBF0E7EC05F00001D869D969FD
:1003A8003F0EDB6FDA69000EDD6F000EDC6F260E84
:1003B800DF6F260EDE6F0F0EE16FA00EE06F090EE5
:1003C800E36FC40EE26F0F0EE56FA00EE46F0F0E21
:1003D800E76FA00EE66F000EC36FB00EC26F000E7F
:1003E800C56F080EC46FD80EC66F000EC76F000E1B
:1003F800C96F000EC86FD6C0CAF0D7C0CBF0E7EC03
:1004080005F00001D869D9693F0EDB6FDA69000E83
:10041800DD6F000EDC6F260EDF6F260EDE6F0F0E0F
:10042800E16FA00EE06F090EE36FC40EE26F0F0ECE
:10043800E56FA00EE46F0F0EE76FA00EE66F000EDB
:10044800C36FB80EC26F000EC56F080EC46FD80E0A
:10045800C66F000EC76F000EC96F000EC86FD6C0FA
:10046800CAF0D7C0CBF0E7EC05F00001D869D9692C
:100478003F0EDB6FDA69000EDD6F000EDC6F260EB3
:10048800DF6F260EDE6F0F0EE16FA00EE06F090E14
:10049800E36FC40EE26F0F0EE56FA00EE46F0F0E50
:1004A800E76FA00EE66F000EC36FC00EC26F000E9E
:1004B800C56F080EC46FD80EC66F000EC76F000E4A
:1004C800C96F000EC86FD6C0CAF0D7C0CBF0E7EC32
:1004D80005F00001D869D9693F0EDB6FDA69000EB3
:1004E800DD6F000EDC6F260EDF6F260EDE6F0F0E3F
:1004F800E16FA00EE06F090EE36FC40EE26F0F0EFE
:10050800E56FA00EE46F0F0EE76FA00EE66F000E0A
:10051800C36FC80EC26F000EC56F080EC46FD80E29
:10052800C66F000EC76F000EC96F000EC86FD6C029
:10053800CAF0D7C0CBF0E7EC05F00001D869D9695B
:100548003F0EDB6FDA69000EDD6F000EDC6F260EE2
:10055800DF6F260EDE6F0F0EE16FA00EE06F090E43
:10056800E36FC40EE26F0F0EE56FA00EE46F0F0E7F
:10057800E76FA00EE66F000EC36FD00EC26F000EBD
:10058800C56F080EC46FD80EC66F000EC76F000E79
:10059800C96F000EC86FD6C0CAF0D7C0CBF0E7EC61
:1005A80005F00001D869D9693F0EDB6FDA69000EE2
:1005B800DD6F000EDC6F260EDF6F260EDE6F0F0E6E
:1005C800E16FA00EE06F090EE36FC40EE26F0F0E2D
:1005D800E56FA00EE46F0F0EE76FA00EE66F000E3A
:1005E800C36FD80EC26F000EC56F080EC46FD80E49
:1005F800C66F000EC76F000EC96F000EC86FD6C059
:10060800CAF0D7C0CBF0E7EC05F0000E0001D96FB7
:10061800B20ED86F000EC36F000EC26F000EC56F0A
:10062800010EC46FD80EC66F000EC76F000EC96FDB
:10063800000EC86FD6C0CAF0D7C0CBF0E7EC05F003
:10064800D4C0C2F0D5C0C3F0000E0001C56F080EBB
:10065800C46F000EC76F030EC66FD6C0C8F0D7C0F0
:10066800C9F03EEC07F0320E0001DD6F300EDC6F92
:10067800080EDF6F190EDE6F080EE16F320EE06FA5
:10068800000EE36F000EE26F000EE56F000EE46FE0
:10069800000EE76F080EE66F000EC36F020EC26F02
:1006A800000EC56F060EC46FD80EC66F000EC76F5A
:1006B800000EC96F020EC86FD6C0CAF0D7C0CBF003
:1006C800E7EC05F0000E0001DB6F0F0EDA6F000E8D
:1006D800C36F010EC26F000EC56F010EC46FD80E36
:1006E800C66F000EC76F000EC96F010EC86FD6C067
:1006F800CAF0D7C0CBF0E7EC05F0400E0001DD6F83
:10070800000EDC6F000EC36F020EC26F000EC56FC5
:10071800010EC46FD80EC66F000EC76F000EC96FEA
:10072800020EC86FD6C0CAF0D7C0CBF0E7EC05F010
:10073800D4C0C2F0D5C0C3F0000E0001C56F080ECA
:10074800C46F000EC76F030EC66FD6C0C8F0D7C0FF
:10075800C9F03EEC07F01200010E0001B56FF40E6F
:10076800B46F13EC09F0F2EC09F0C6EC09F0550E81
:100778000001D46F000ED56F000ED76F010ED66F33
:1007880089EC00F0000E0001C36F010EC26F36EC59
:1007980005F0550E0001C26F000EC36F000EC56F45
:1007A800080EC46F000EC76F030EC66F000EC96F28
:1007B800010EC86F3EEC07F096EC09F0D1EC09F099
:1007C80000017B6F41D154EC09F0ACC078F0ADC0AA
:1007D80079F07C0E0001C26F000EC36F78C0C4F0C0
:1007E80079C0C5F096EC05F0D89000017835D96E3F
:1007F8007935DA6E7C0ED926000EDA22DECFACF01F
:10080800DDCFADF0B8EC09F001D154EC09F0ACC083
:1008180074F0ADC075F074C0C2F075C0C3F036ECAA
:1008280005F0F4D054EC09F0ACC074F0ADC075F02C
:1008380054EC09F0ACC072F0ADC073F074C0C2F0F3
:1008480075C0C3F072C0C4F073C0C5F0BCEC06F04C
:10085800DDD054EC09F0ACC074F0ADC075F074C0D4
:10086800C2F075C0C3F075EC08F0C2C076F0C3C022
:1008780077F076C0ACF077C0ADF0B8EC09F0C6D030
:100888007B51620AD8B49FD7040AD8B4BED70E0ADF
:10089800D8B4C8D71F0AD8B4DCD790D754EC09F01D
:1008A800ACC078F0ADC079F07C0E0001C26F000ECC
:1008B800C36F78C0C4F079C0C5F096EC05F0D89045
:1008C80000017835D96E7935DA6E7C0ED926000E9E
:1008D800DA22DECFACF0DDCFADF0B8EC09F06ED7A0
:1008E800730EE5EC09F0000E0001F16F000EF06FD9
:1008F800F15124E1180EF05DD8B020D0D890F03531
:10090800D96EF135DA6E000ED926010EDA22DE0430
:10091800DE10D8A40FD0D890F035D96EF135DA6E44
:100928007C0ED926000EDA22DECFACF0DDCFADF09A
:10093800B8EC09F00001F04BF12BDAD7F0EC08F035
:1009480000017A6F7A0E7A19D8A406D0000EF36FD8
:10095800000EF26F720EF46F0001F205F311D8B4B5
:10096800BFD7000EF36F010EF26F28D7F46F26D7AA
:100978007B51750AD8B492D7030AD8B4EDD757D0AB
:10098800000EAC6F010EAD6F000EAF6F000EAE6FB4
:10099800000EB16F300EB06F6CEC09F054EC09F03A
:1009A800ACC070F0ADC071F0000E0001EF6F000E2A
:1009B800EE6F22D054EC09F0ACC0ECF0ADC0EDF015
:1009C800FE0E0001E86FFF0EE96FECC0EAF0EDC023
:1009D800EBF0D890EA37EB37E851EA27E951EB23F7
:1009E800000EEA25D96E010EEB21DA6E010EDE6EDD
:1009F800000EDD6EEE4BEF2B7051EE5D7151EF592D
:100A0800D8A0D8D714D0650EE5EC09F0720E000115
:100A1800ADD77B51650AD8B4F6D70B0AD8B4B0D78E
:100A2800CDD6730EA3D7630EA1D7700E9FD7720EC3
:100A38009DD77B51630AD8B4F6D7130AD8B4F5D733
:100A4800030AD8B4EED7F3D7F451630AD8B490D7D1
:100A5800130AD8B4DED7020AD8B4EBD7010AD8B43F
:100A68000FD7ACD6C2C0ACF0C3C0ADF0000E0001C9
:100A7800AF6F000EAE6F84EC09F0200E0001C56F59
:100A8800000EC46FE00EAD6F050EAC6FC4C0AEF0C3
:100A9800C5C0AFF039EC08F0000E0001B56F0A0EC2
:100AA800B46F13EC09F0C2C0ACF0C3C0ADF0000ED7
:100AB8000001AF6F010EAE6F84EC09F0030E000168
:100AC800B56FE80EB46F13EC09F0C2C0ACF0C3C048
:100AD800ADF0000E0001AF6F000EAE6F84EC09F0B0
:100AE800300E0001C56F000EC46FE00EAD6F050E2D
:100AF800AC6FC4C0AEF0C5C0AFF039EC08F0000E62
:100B08000001B56F0A0EB46F13EC09F0C2C0ACF067
:100B1800C3C0ADF0000E0001AF6F010EAE6F84ECE4
:100B280009F01200000E0001CD6F000ECC6FC55108
:100B380004E10D0EC45DD8A007D0F40EC425CC6F17
:100B4800FF0EC521CD6F04D0C4C0CCF0C5C0CDF018
:100B58000A0ECC25CA6FE40ECD21CB6FC4C0B0F00D
:100B6800C5C0B1F0000EB36F000EB26F36EC09F0DD
:100B7800CAC0ACF0CBC0ADF035EC06F0FE0E0001FB
:100B8800C66FFF0EC76FC4C0C8F0C5C0C9F0D89003
:100B9800C837C937C651C827C751C923C851C22544
:100BA800D96EC951C321DA6EACC0DEFFADC0DDFF1E
:100BB800C4C0B0F0C5C0B1F0000EB36F010EB26F83
:100BC80036EC09F01200CAC0ACF0CBC0ADF0000E94
:100BD8000001AF6F000EAE6F84EC09F0000E00014B
:100BE800C225CE6FE00EC321CF6F000ED16F000E6D
:100BF800D06F000ED36F000ED26F22D0D251C8250D
:100C0800CC6FD351C921CD6FD890CC37CD37CC51CB
:100C1800C625D96ECD51C721DA6EDECFD0F0DDCF33
:100C2800D1F0D251CE25AC6FD351CF21AD6FD0C00A
:100C3800AEF0D1C0AFF039EC08F00001D24BD32BA5
:100C4800C451D25DC551D359D8A0D8D7CAC0ACF0C9
:100C5800CBC0ADF0000EAF6F010EAE6F84EC09F0A3
:100C68001200000E0001BB6F000EBA6F000EBD6FC0
:100C7800000EBC6FAC51B46FB56BACC0AEF0ADC07C
:100C8800AFF0AFC0AEF0AF6BAE51B66FB76BB6C0DA
:100C9800C9FFC7A0FED7C9CFB0F00001B16BB4C07F
:100CA800C9FFC7A0FED7C9CFB2F00001B36BBCC063
:100CB800C9FFC7A0FED7C9CFBEF00001BF6BBAC03D
:100CC800C9FFC7A0FED7C9CFC0F00001C16BBE5194
:100CD800AF6FAE6BC051AE25B86FC151AF21B96FC0
:100CE800B8C0ACF0B9C0ADF01200000E0001B16F91
:100CF800AFAF06D0AE6DAF1FD8B0AF2B010EB16F3E
:100D0800ADAF06D0AC6DAD1FD8B0AD2B010EB11B89
:100D1800000EB36F000EB26FAE51AF11D8B41CD035
:100D2800010EB06F04D0D890AE37AF37B02BAFAF4D
:100D3800FAD7D890B237B337AE51AC5DAF51AD5991
:100D4800D8A005D0AE51AC5FAF51AD5BB281D890A1
:100D5800AF33AE33B02FEDD7B151D8B404D0B26DA4
:100D6800B31FD8B0B32BB2C0ACF0B3C0ADF0120013
:100D7800C2C0ACF0C3C0ADF0000E0001AF6F000EF2
:100D8800AE6F84EC09F00001C405C511D8A40FD0DA
:100D9800200EC76F000EC66FE00EAD6F050EAC6F6C
:100DA800C6C0AEF0C7C0AFF039EC08F00FD0300EB7
:100DB8000001C96F000EC86FE00EAD6F050EAC6F75
:100DC800C8C0AEF0C9C0AFF039EC08F0000E0001A1
:100DD800B56F0A0EB46F13EC09F0C2C0ACF0C3C013
:100DE800ADF0000E0001AF6F010EAE6F84EC09F09C
:100DF8001200000E026E020E016E000E046E000E4E
:100E0800036EA7EC09F0E40E026E0B0E016EBDEC4A
:100E180007F020EE18F01750D9261850DA2201C032
:100E2800DEFF02C0DDFF000E1A6E0D0E196E1A509D
:100E380016E1110E195CD8B012D0CCEC08F0D8909D
:100E48001934D96E1A34DA6E1750D9261850DA22A6
:100E580001C0DEFF02C0DDFF194A1A2AE8D7000EDA
:100E6800026E020E016E000E046E010E036EA7ECF8
:100E780009F01200C8C0ACF0C9C0ADF0000E000106
:100E8800AF6F000EAE6F84EC09F0000E0001C425B0
:100E9800CA6FE40EC521CB6F000ECD6F000ECC6F6C
:100EA80018D0CC51CA25AC6FCD51CB21AD6F35ECE4
:100EB80006F0D8900001CC35D96ECD35DA6EC25126
:100EC800D926C351DA22ACC0DEFFADC0DDFFCC4B62
:100ED800CD2BC651CC5DC751CD59D8A0E2D7C8C0DB
:100EE800ACF0C9C0ADF0000EAF6F010EAE6F84EC70
:100EF80009F01200000E026E010E016E000E046E63
:100F0800000E036EA7EC09F0E40E026E0B0E016EE4
:100F1800BDEC07F017C0D9FF18C0DAFF01C0DEFF2B
:100F280002C0DDFF000E1A6E010E196E1A5016E18E
:100F3800030E195CD8B012D0CCEC08F0D890193454
:100F4800D96E1A34DA6E1750D9261850DA2201C031
:100F5800DEFF02C0DDFF194A1A2AE8D7000E026E2A
:100F6800010E016E000E046E010E036EA7EC09F06F
:100F78001200000E106E000E0F6E000E126E000EA4
:100F8800116E0150096E0A6A01C003F002C004F034
:100F980004C003F0046A03500B6E0C6A0BC0C9FF4F
:100FA800C7A0FED7C9CF05F0066A09C0C9FFC7A008
:100FB800FED7C9CF07F0086A11C0C9FFC7A0FED77E
:100FC800C9CF13F0146A0FC0C9FFC7A0FED7C9CF95
:100FD80015F0166A1350046E036A155003240D6E3B
:100FE800165004200E6E0DC001F00EC002F0120063
:100FF8001DC001F01EC002F0000E046E000E036E4C
:10100800A7EC09F0000E19241F6EE40E1A20206EBA
:10101800000E226E000E216E17D021501F24016E83
:1010280022502020026EBDEC07F0D8902134D96EF2
:101038002234DA6E1750D9261850DA2201C0DEFFA2
:1010480002C0DDFF214A222A1B50215C1C50225875
:10105800D8A0E3D71DC001F01EC002F0000E046E38
:10106800010E036EA7EC09F012000001AC51BA6F33
:10107800BB6BACC0B0F0ADC0B1F0B1C0B0F0B16BFB
:10108800B051BC6FBD6BAE51BE6FBF6BAEC0B0F0A0
:10109800AFC0B1F0B1C0B0F0B16BB051C06FC16BAF
:1010A800BCC0C9FFC7A0FED7C9CFB2F00001B36B5F
:1010B800BAC0C9FFC7A0FED7C9CFB4F00001B56B4D
:1010C800C0C0C9FFC7A0FED7C9CFB6F00001B76B33
:1010D800BEC0C9FFC7A0FED7C9CFB8F00001B96B21
:1010E8001200C2C0ACF0C3C0ADF0000E0001AF6F7B
:1010F800000EAE6F84EC09F0E40E0001AD6F170E20
:10110800AC6F35EC06F0040E0001C46FD890AD3317
:10111800AC33C42FFBD7FF0EAC15C56F0F0EAD1542
:10112800C66FC2C0ACF0C3C0ADF0000EAF6F010E09
:10113800AE6F84EC09F0C5C0C2F0C6C0C3F012009F
:10114800EE0EF66E130EF76E000EF86E0900F5CF70
:10115800F2F00900F5CFF3F00900F5CFF4F001EE55
:1011680000F0300EEE6AE806FDE100EE60F04C0E8D
:10117800EE6AE806FDE100EE35F0260EEE6AE806B6
:10118800FDE15B905B92000EF86E0001B0EF03F09A
:10119800000E066E000E056E000E086E000E076E3D
:1011A80007C0C9FFC7A0FED7C9CF09F00A6A05C0A2
:1011B800C9FFC7A0FED7C9CF0BF00C6A0950046E4F
:1011C800036A0B5003240D6E0C5004200E6E0DC0E4
:1011D80001F00EC002F01200000E0001AD6F000E0B
:1011E800AC6F0BD0ABA203D0AB92AB98AB88010E1F
:1011F800AC25AC6F000EAD21AD6F9EBA06D0AD51D7
:1012080004E1050EAC5DD8A0EDD7AD5104E1050EA3
:10121800AC5DD8A002D0000E1200AE501200B4C0CF
:10122800ACF0B5C0ADF0000E0001AF6F0A0EAE6FA6
:1012380079EC06F0ACC0B7F0ADC0B8F009D01A0E22
:101248000001B66FF80EE82EFED7B62FFCD700F0D7
:101258000001B707D8A0B807B729F1E1B829D8B471
:101268001200EDD70001B15104E10D0EB05DD8A018
:101278000BD0000EAD6F020EAC6FB2C0AEF0B3C0B3
:10128800AFF084EC09F01200000E0001AD6F010E02
:10129800AC6FB2C0AEF0B3C0AFF084EC09F012008E
:1012A800D1EC09F00001B26FD1EC09F00001B36F85
:1012B800B351B2C0AEF0AF6BAEC0AFF0AE6BAE1113
:1012C800B06FAF51B16FB0C0ACF0B1C0ADF01200AB
:1012D800ACC0B2F0ADC0B3F009D0B2C0D9FFB3C052
:1012E800DAFFAEC0DFFF0001B24BB32B0001B0073D
:1012F800D8A0B107B029F1E1B129D8B41200EDD7CF
:101308000001AE05AF11D8A403D08B828B801200E8
:10131800AC05AD11D8A403D08B928B8012008B90B2
:101328008B8212000F015C955C9193809382D08E22
:10133800F288F19CF292F08CF086F19AF090F28C9F
:10134800F28EF28E120003040410D8A403D08B820C
:101358008B80120001040210D8A403D08B928B80DA
:1013680012008B908B821200ACC0AEF00001AD5120
:10137800AF6FACA2FED7AEC0ADFFACA2FED7AFC078
:10138800ADFF1200C79EC79CC69EC688C696C69467
:10139800C682C6909D96C68A120005D0ABA203D01D
:1013A800AB92AB98AB889EAAF9D7AE501200200E2C
:1013B800AC6E010EAF6E000EA76EAB8EAB9CAB8809
:1013C80012000001AC6FACA2FED7ACC0ADFF12009A
:1013D800900E946E8B828B808B841200ECEC09F05B
:0913E800DBEC09F01200010072B7
:020000040020DA
:08000000FFFFFFFFFFFFFFFF00
:020000040030CA
:0E00000015037F7CFF0991FF0FC00FE00F403A
:00000001FF
