:0400000077EF00F0A6
:100008005782FACF23F0FBCF24F0E9CF25F0EACFCF
:1000180026F0E1CF27F0E2CF28F0D9CF29F0DACFC8
:100028002AF0F3CF2BF0F4CF2CF0F6CF2DF0F7CF4A
:100038002EF0F8CF2FF0F5CF30F0F2B2F2A819D0A9
:100048007C0E176E000E186EFFEC08F0510E176E3E
:10005800000E186E000E1A6E080E196E000E1C6E39
:10006800030E1B6E000E1E6E010E1D6E7DEC09F058
:10007800F292F0B0F0A619D07C0E176E000E186E32
:10008800BEEC08F04B0E176E000E186E000E1A6EBE
:10009800080E196E000E1C6E030E1B6E000E1E6EEF
:1000A800020E1D6E7DEC09F0F09030C0F5FF2FC0F8
:1000B800F8FF2EC0F7FF2DC0F6FF2CC0F4FF2BC0B1
:1000C800F3FF2AC0DAFF29C0D9FF28C0E2FF27C002
:1000D800E1FF26C0EAFF25C0E9FF24C0FBFF23C0DB
:1000E800FAFF579211001BEF0AF020EE60F010EEB5
:1000F800D8F00F0EDBCFE3FFE806FCE2FF0E0001AD
:10010800D96FFE0ED86F1F0E0001DB6FDA69010E82
:100118000001DD6F000EDC6F210E0001DF6F210E84
:10012800DE6F010E0001E16FF40EE06F010E0001B9
:10013800E36FF40EE26F020E0001E56F580EE46FF4
:10014800020E0001E76F580EE66F000E0001C36F44
:10015800800EC26F000E0001C56F080EC46FD80E66
:100168000001C66F000E0001C76F000E0001C96FC5
:10017800000EC86FD6C0CAF0D7C0CBF0FAEC05F0B5
:10018800FF0E0001D96FFB0ED86F1F0E0001DB6F49
:10019800DA69010E0001DD6F000EDC6F210E00012F
:1001A800DF6F210EDE6F010E0001E16FF40EE06FCC
:1001B800010E0001E36FF40EE26F020E0001E56F1D
:1001C800580EE46F020E0001E76F580EE66F000E3E
:1001D8000001C36F880EC26F000E0001C56F080EC4
:1001E800C46FD80E0001C66F000E0001C76F000E65
:1001F8000001C96F000EC86FD6C0CAF0D7C0CBF0D7
:10020800FAEC05F0FF0E0001D96FEF0ED86F1F0E44
:100218000001DB6FDA69010E0001DD6F000EDC6F93
:10022800210E0001DF6F210EDE6F010E0001E16F6C
:10023800F40EE06F010E0001E36FF40EE26F020EA0
:100248000001E56F580EE46F020E0001E76F580ECB
:10025800E66F000E0001C36F900EC26F000E000122
:10026800C56F080EC46FD80E0001C66F000E0001DE
:10027800C76F000E0001C96F000EC86FD6C0CAF064
:10028800D7C0CBF0FAEC05F0FE0E0001D96FD869A3
:100298001F0E0001DB6FDA69010E0001DD6F000E31
:1002A800DC6F210E0001DF6F210EDE6F010E0001F1
:1002B800E16FF40EE06F010E0001E36FF40EE26FE0
:1002C800020E0001E56F580EE46F020E0001E76FA1
:1002D800580EE66F000E0001C36F980EC26F000E35
:1002E8000001C56F080EC46FD80E0001C66F000E5E
:1002F8000001C76F000E0001C96F000EC86FD6C09D
:10030800CAF0D7C0CBF0FAEC05F00001D869D9697A
:100318003F0E0001DB6FDA69000E0001DD6F000E91
:10032800DC6F260E0001DF6F260EDE6F0F0E000158
:10033800E16FA00EE06F090E0001E36FC40EE26FDB
:100348000F0E0001E56FA00EE46F0F0E0001E76FBE
:10035800A00EE66F000E0001C36FA00EC26F000E64
:100368000001C56F080EC46FD80E0001C66F000EDD
:100378000001C76F000E0001C96F000EC86FD6C01C
:10038800CAF0D7C0CBF0FAEC05F00001D869D969FA
:100398003F0E0001DB6FDA69000E0001DD6F000E11
:1003A800DC6F260E0001DF6F260EDE6F0F0E0001D8
:1003B800E16FA00EE06F090E0001E36FC40EE26F5B
:1003C8000F0E0001E56FA00EE46F0F0E0001E76F3E
:1003D800A00EE66F000E0001C36FA80EC26F000EDC
:1003E8000001C56F080EC46FD80E0001C66F000E5D
:1003F8000001C76F000E0001C96F000EC86FD6C09C
:10040800CAF0D7C0CBF0FAEC05F00001D869D96979
:100418003F0E0001DB6FDA69000E0001DD6F000E90
:10042800DC6F260E0001DF6F260EDE6F0F0E000157
:10043800E16FA00EE06F090E0001E36FC40EE26FDA
:100448000F0E0001E56FA00EE46F0F0E0001E76FBD
:10045800A00EE66F000E0001C36FB00EC26F000E53
:100468000001C56F080EC46FD80E0001C66F000EDC
:100478000001C76F000E0001C96F000EC86FD6C01B
:10048800CAF0D7C0CBF0FAEC05F00001D869D969F9
:100498003F0E0001DB6FDA69000E0001DD6F000E10
:1004A800DC6F260E0001DF6F260EDE6F0F0E0001D7
:1004B800E16FA00EE06F090E0001E36FC40EE26F5A
:1004C8000F0E0001E56FA00EE46F0F0E0001E76F3D
:1004D800A00EE66F000E0001C36FB80EC26F000ECB
:1004E8000001C56F080EC46FD80E0001C66F000E5C
:1004F8000001C76F000E0001C96F000EC86FD6C09B
:10050800CAF0D7C0CBF0FAEC05F00001D869D96978
:100518003F0E0001DB6FDA69000E0001DD6F000E8F
:10052800DC6F260E0001DF6F260EDE6F0F0E000156
:10053800E16FA00EE06F090E0001E36FC40EE26FD9
:100548000F0E0001E56FA00EE46F0F0E0001E76FBC
:10055800A00EE66F000E0001C36FC00EC26F000E42
:100568000001C56F080EC46FD80E0001C66F000EDB
:100578000001C76F000E0001C96F000EC86FD6C01A
:10058800CAF0D7C0CBF0FAEC05F00001D869D969F8
:100598003F0E0001DB6FDA69000E0001DD6F000E0F
:1005A800DC6F260E0001DF6F260EDE6F0F0E0001D6
:1005B800E16FA00EE06F090E0001E36FC40EE26F59
:1005C8000F0E0001E56FA00EE46F0F0E0001E76F3C
:1005D800A00EE66F000E0001C36FC80EC26F000EBA
:1005E8000001C56F080EC46FD80E0001C66F000E5B
:1005F8000001C76F000E0001C96F000EC86FD6C09A
:10060800CAF0D7C0CBF0FAEC05F00001D869D96977
:100618003F0E0001DB6FDA69000E0001DD6F000E8E
:10062800DC6F260E0001DF6F260EDE6F0F0E000155
:10063800E16FA00EE06F090E0001E36FC40EE26FD8
:100648000F0E0001E56FA00EE46F0F0E0001E76FBB
:10065800A00EE66F000E0001C36FD00EC26F000E31
:100668000001C56F080EC46FD80E0001C66F000EDA
:100678000001C76F000E0001C96F000EC86FD6C019
:10068800CAF0D7C0CBF0FAEC05F00001D869D969F7
:100698003F0E0001DB6FDA69000E0001DD6F000E0E
:1006A800DC6F260E0001DF6F260EDE6F0F0E0001D5
:1006B800E16FA00EE06F090E0001E36FC40EE26F58
:1006C8000F0E0001E56FA00EE46F0F0E0001E76F3B
:1006D800A00EE66F000E0001C36FD80EC26F000EA9
:1006E8000001C56F080EC46FD80E0001C66F000E5A
:1006F8000001C76F000E0001C96F000EC86FD6C099
:10070800CAF0D7C0CBF0FAEC05F0000E0001D96FA3
:10071800B20ED86F000E0001C36F000EC26F000E3C
:100728000001C56F010EC46FD80E0001C66F000E20
:100738000001C76F000E0001C96F000EC86FD6C058
:10074800CAF0D7C0CBF0FAEC05F0D4C0C2F0D5C0DF
:10075800C3F0000E0001C56F080EC46F000E000143
:10076800C76F030EC66FD6C0C8F0D7C0C9F08DECEE
:1007780007F0320E0001DD6F300EDC6F080E00014D
:10078800DF6F190EDE6F080E0001E16F320EE06FA9
:10079800000E0001E36F000EE26F000E0001E56F2E
:1007A800000EE46F000E0001E76F080EE66F000E02
:1007B8000001C36F020EC26F000E0001C56F060E66
:1007C800C46FD80E0001C66F000E0001C76F000E7F
:1007D8000001C96F020EC86FD6C0CAF0D7C0CBF0EF
:1007E800FAEC05F0000E0001DB6F0F0EDA6F000E59
:1007F8000001C36F010EC26F000E0001C56F010E2C
:10080800C46FD80E0001C66F000E0001C76F000E3E
:100818000001C96F010EC86FD6C0CAF0D7C0CBF0AF
:10082800FAEC05F0400E0001DD6F000EDC6F000EE3
:100838000001C36F020EC26F000E0001C56F010EEA
:10084800C46FD80E0001C66F000E0001C76F000EFE
:100858000001C96F020EC86FD6C0CAF0D7C0CBF06E
:10086800FAEC05F0D4C0C2F0D5C0C3F0000E000108
:10087800C56F080EC46F000E0001C76F030EC66F68
:10088800D6C0C8F0D7C0C9F08DEC07F01200010E31
:100898000001B56FF40EB46F43EC0AF058EC0BF09E
:1008A8002CEC0BF0510E0001D46F000E0001D56F37
:1008B800000E0001D76F010ED66F79EC00F0000E24
:1008C8000001C36F010EC26FCCEC06F0510E00019F
:1008D800C26F000E0001C36F000E0001C56F080E45
:1008E800C46F000E0001C76F030EC66F000E000133
:1008F800C96F010EC86F8DEC07F0FAEC0AF037ECFF
:100908000BF000017B6F63D1ACEC0AF0ACC078F05F
:10091800ADC079F07C0E0001C26F000E0001C36FFC
:1009280078C0C4F079C0C5F063EC06F0D890000137
:100938007835D96E00017935DA6E7C0ED926000E2D
:10094800DA22DECFACF0DDCFADF01DEC0BF02FD10D
:10095800ACEC0AF0ACC074F0ADC075F074C0C2F075
:1009680075C0C3F0CCEC06F022D1ACEC0AF0ACC0F8
:1009780074F0ADC075F0ACEC0AF0ACC072F0ADC06C
:1009880073F074C0C2F075C0C3F072C0C4F073C015
:10099800C5F034EC08F00BD1ACEC0AF0ACC074F044
:1009A800ADC075F074C0C2F075C0C3F0BAEC09F000
:1009B800C2C076F0C3C077F076C0ACF077C0ADF0B7
:1009C8001DEC0BF0F4D000017B51620AD8B49CD71F
:1009D800040AD8B4BDD70E0AD8B4C7D71F0AD8B4EA
:1009E800DBD78DD7ACEC0AF0ACC078F0ADC079F0AD
:1009F8007C0E0001C26F000E0001C36F78C0C4F006
:100A080079C0C5F063EC06F0D89000017835D96E4E
:100A180000017935DA6E7C0ED926000EDA22DECF97
:100A2800ACF0DDCFADF01DEC0BF069D7730E4BECDD
:100A38000BF0000E0001F16F000EF06F0001F15194
:100A480029E1180E0001F05DD8B024D0D89000013B
:100A5800F035D96E0001F135DA6E000ED926010E97
:100A6800DA22DE04DE10D8A411D0D8900001F035C7
:100A7800D96E0001F135DA6E7C0ED926000EDA2225
:100A8800DECFACF0DDCFADF01DEC0BF00001F04B8C
:100A9800F12BD4D7F0EC09F000017A6F7A0E00013F
:100AA8007A19D8A408D0000E0001F36F000EF26F77
:100AB800720E0001F46F0001F2050001F311D8B4C1
:100AC800B5D7000E0001F36F010EF26F18D70001C1
:100AD8007B51750AD8B486D7030AD8B4ECD767D047
:100AE800000E0001AC6F010E0001AD6F000E000199
:100AF800AF6F000EAE6F000E0001B16F300EB06F19
:100B0800CBEC0AF0ACEC0AF0ACC070F0ADC071F000
:100B1800000E0001EF6F000EEE6F2BD0ACEC0AF068
:100B2800ACC0ECF0ADC0EDF0FE0E0001E86FFF0EBA
:100B38000001E96FECC0EAF0EDC0EBF0D8900001DD
:100B4800EA37EB370001E8510001EA270001E951D3
:100B58000001EB23000E0001EA25D96E010E000109
:100B6800EB21DA6E010EDE6E000EDD6E0001EE4B3B
:100B7800EF2B000170510001EE5D00017151000181
:100B8800EF59D8B014D0CAD7650E4BEC0BF00FD084
:100B980000017B51650AD8B4F7D70B0AD8B4A0D79F
:100BA800AED6730E05D0630E03D0700E01D0720E50
:100BB8000001F46FA4D600017B51630AD8B4F3D7BF
:100BC800130AD8B4F2D7030AD8B4EBD7F0D7000188
:100BD800F451630AD8B47BD7130AD8B4D9D7020A18
:100BE800D8B4E9D7010AD8B4EED689D6CAC0ACF0D1
:100BF800CBC0ADF0000E0001AF6F000EAE6FE5EC9C
:100C08000AF0000E0001C2250001CE6FE00E0001BF
:100C1800C3210001CF6F000E0001D16F000ED06F0D
:100C2800000E0001D36F000ED26F33D00001D251F5
:100C38000001C8250001CC6F0001D3510001C92172
:100C48000001CD6FD8900001CC37CD370001CC51D1
:100C58000001C625D96E0001CD510001C721DA6E09
:100C6800DECFD0F0DDCFD1F00001D2510001CE258A
:100C78000001AC6F0001D3510001CF210001AD6F1D
:100C8800D0C0AEF0D1C0AFF079EC08F00001D24B83
:100C9800D32B0001C4510001D25D0001C5510001F0
:100CA800D359D8A0C3D7CAC0ACF0CBC0ADF0000EA2
:100CB8000001AF6F010EAE6FE5EC0AF01200000EF6
:100CC8000001CD6F000ECC6F0001C55105E10D0E7E
:100CD8000001C45DD8A00BD0F40E0001C4250001AA
:100CE800CC6FFF0E0001C5210001CD6F04D0C4C038
:100CF800CCF0C5C0CDF00A0E0001CC250001CA6FAA
:100D0800E40E0001CD210001CB6FC4C0B0F0C5C016
:100D1800B1F0000E0001B36F000EB26F8CEC0AF058
:100D2800CAC0ACF0CBC0ADF0E2EC07F0FE0E00019B
:100D3800C66FFF0E0001C76FC4C0C8F0C5C0C9F0B8
:100D4800D8900001C837C9370001C6510001C8272B
:100D58000001C7510001C9230001C8510001C22583
:100D6800D96E0001C9510001C321DA6E0001ACC07F
:100D7800DEFF0001ADC0DDFFC4C0B0F0C5C0B1F0FA
:100D8800000E0001B36F010EB26F8CEC0AF0120076
:100D9800C2C0ACF0C3C0ADF0000E0001AF6F000ED2
:100DA800AE6FE5EC0AF0200E0001C56F000EC46FAF
:100DB800E00E0001AD6F050EAC6FC4C0AEF0C5C04B
:100DC800AFF079EC08F0000E0001B56F0A0EB46FB1
:100DD80043EC0AF0C2C0ACF0C3C0ADF0000E000195
:100DE800AF6F010EAE6FE5EC0AF0030E0001B56FB0
:100DF800E80EB46F43EC0AF0C2C0ACF0C3C0ADF06B
:100E0800000E0001AF6F000EAE6FE5EC0AF0300E79
:100E18000001C56F000EC46FE00E0001AD6F050E36
:100E2800AC6FC4C0AEF0C5C0AFF079EC08F0000EEE
:100E38000001B56F0A0EB46F43EC0AF0C2C0ACF003
:100E4800C3C0ADF0000E0001AF6F010EAE6FE5EC50
:100E58000AF01200000E0001B16F0001AFAF08D018
:100E68000001AE6DAF1FD8B0AF2B010E0001B16FFE
:100E78000001ADAF08D00001AC6DAD1FD8B0AD2BEF
:100E8800010E0001B11B000E0001B36F000EB26F1E
:100E98000001AE510001AF11D8B42CD0010E0001F1
:100EA800B06F06D00001D890AE37AF370001B02B35
:100EB8000001AFAFF7D70001D890B237B3370001C0
:100EC800AE510001AC5D0001AF510001AD59D8A091
:100ED8000AD00001AE510001AC5F0001AF51000122
:100EE800AD5B0001B2810001D890AF33AE33000191
:100EF800B02FE1D70001B1510001D8B405D00001ED
:100F0800B26DB31FD8B0B32BB2C0ACF0B3C0ADF064
:100F18001200C8C0ACF0C9C0ADF0000E0001AF6F40
:100F2800000EAE6FE5EC0AF0000E0001C4250001CA
:100F3800CA6FE40E0001C5210001CB6F000E00014D
:100F4800CD6F000ECC6F24D00001CC510001CA2512
:100F58000001AC6F0001CD510001CB210001AD6F44
:100F6800E2EC07F0D8900001CC35D96E0001CD3500
:100F7800DA6E0001C251D9260001C351DA220001FC
:100F8800ACC0DEFF0001ADC0DDFF0001CC4BCD2BB6
:100F98000001C6510001CC5D0001C7510001CD59C7
:100FA800D8A0D2D7C8C0ACF0C9C0ADF0000E0001BF
:100FB800AF6F010EAE6FE5EC0AF01200000E0001F3
:100FC800BB6F000EBA6F000E0001BD6F000EBC6F44
:100FD8000001AC510001B46FB56BACC0AEF0ADC050
:100FE800AFF0AFC0AEF00001AF6B0001AE51000131
:100FF800B66FB76BB6C0C9FFC7A0FED7C9CFB0F0F0
:101008000001B16BB4C0C9FFC7A0FED7C9CFB2F009
:101018000001B36BBCC0C9FFC7A0FED7C9CFBEF0E3
:101028000001BF6BBAC0C9FFC7A0FED7C9CFC0F0C7
:101038000001C16B0001BE510001AF6FAE6B000132
:10104800C0510001AE250001B86F0001C151000177
:10105800AF210001B96FB8C0ACF0B9C0ADF0120053
:10106800C2C0ACF0C3C0ADF0000E0001AF6F000EFF
:10107800AE6FE5EC0AF00001C4050001C511D8A463
:1010880011D0200E0001C76F000EC66FE00E0001E0
:10109800AD6F050EAC6FC6C0AEF0C7C0AFF079EC4F
:1010A80008F010D0300E0001C96F000EC86FE00EB6
:1010B8000001AD6F050EAC6FC8C0AEF0C9C0AFF08F
:1010C80079EC08F0000E0001B56F0A0EB46F43EC1E
:1010D8000AF0C2C0ACF0C3C0ADF0000E0001AF6FA3
:1010E800010EAE6FE5EC0AF012000001AC510001F0
:1010F800BA6FBB6BACC0B0F0ADC0B1F0B1C0B0F06E
:101108000001B16B0001B0510001BC6FBD6B000163
:10111800AE510001BE6FBF6BAEC0B0F0AFC0B1F052
:10112800B1C0B0F00001B16B0001B0510001C06F57
:10113800C16BBCC0C9FFC7A0FED7C9CFB2F00001C0
:10114800B36BBAC0C9FFC7A0FED7C9CFB4F00001BE
:10115800B56BC0C0C9FFC7A0FED7C9CFB6F00001A4
:10116800B76BBEC0C9FFC7A0FED7C9CFB8F0000192
:10117800B96B1200000E026E020E016E000E046EB4
:10118800000E036E0CEC0BF0E40E026E0B0E016EFB
:101198003EEC09F020EE18F01750D9261850DA2244
:1011A80001C0DEFF02C0DDFF000E1A6E0D0E196EC3
:1011B8001A5016E1110E195CD8B012D068EC0AF07A
:1011C800D8901934D96E1A34DA6E1750D9261850B7
:1011D800DA2201C0DEFF02C0DDFF194A1A2AE8D769
:1011E800000E026E020E016E000E046E010E036EFA
:1011F8000CEC0BF01200000E026E010E016E000ED8
:10120800046E000E036E0CEC0BF0E40E026E0B0E77
:10121800016E3EEC09F017C0D9FF18C0DAFF01C013
:10122800DEFF02C0DDFF000E1A6E010E196E1A50A5
:1012380016E1030E195CD8B012D068EC0AF0D89009
:101248001934D96E1A34DA6E1750D9261850DA22A2
:1012580001C0DEFF02C0DDFF194A1A2AE8D7000ED6
:10126800026E010E016E000E046E010E036E0CEC90
:101278000BF01200000E106E000E0F6E000E126EB4
:10128800000E116E0150096E0A6A01C003F002C017
:1012980004F004C003F0046A03500B6E0C6A0BC020
:1012A800C9FFC7A0FED7C9CF05F0066A09C0C9FFA4
:1012B800C7A0FED7C9CF07F0086A11C0C9FFC7A0E9
:1012C800FED7C9CF13F0146A0FC0C9FFC7A0FED755
:1012D800C9CF15F0166A1350046E036A155003241B
:1012E8000D6E165004200E6E0DC001F00EC002F0F7
:1012F80012001DC001F01EC002F0000E046E000EA8
:10130800036E0CEC0BF0000E19241F6EE40E1A206D
:10131800206E000E226E000E216E17D021501F2461
:10132800016E22502020026E3EEC09F0D890213444
:10133800D96E2234DA6E1750D9261850DA2201C035
:10134800DEFF02C0DDFF214A222A1B50215C1C500F
:101358002258D8A0E3D71DC001F01EC002F0000E2D
:10136800046E010E036E0CEC0BF01200C2C0ACF060
:10137800C3C0ADF0000E0001AF6F000EAE6FE5EC1C
:101388000AF0E40E0001AD6F170EAC6FE2EC07F047
:10139800040E0001C46F0001D890AD33AC330001D6
:1013A800C42FF9D7FF0E0001AC150001C56F0F0E51
:1013B8000001AD150001C66FC2C0ACF0C3C0ADF0EE
:1013C800000E0001AF6F010EAE6FE5EC0AF0C5C06C
:1013D800C2F0C6C0C3F01200000E0001AD6F000ECF
:1013E800AC6F0FD0ABA203D0AB92AB98AB88010E19
:1013F8000001AC250001AC6F000E0001AD21000119
:10140800AD6F9EBA08D00001AD5105E1050E00018F
:10141800AC5DD8A0E7D70001AD5105E1050E00018C
:10142800AC5DD8A002D0000E1200AE501200BA0E69
:10143800F66E160EF76E000EF86E0900F5CFF2F094
:101448000900F5CFF3F00900F5CFF4F001EE00F054
:10145800300EEE6AE806FDE100EE60F04C0EEE6A32
:10146800E806FDE100EE31F0260EEE6AE806FDE141
:1014780057905792000EF86E00014BEF04F0B4C07D
:10148800ACF0B5C0ADF0000E0001AF6F0A0EAE6F44
:101498002EEC07F0ACC0B7F0ADC0B8F009D01A0E0A
:1014A8000001B66FF80EE82EFED7B62FFCD700F075
:1014B8000001B707D8A0B8070001B729F0E100017B
:1014C800B829D8B41200EBD7000E066E000E056ED0
:1014D800000E086E000E076E07C0C9FFC7A0FED732
:1014E800C9CF09F00A6A05C0C9FFC7A0FED7C9CF8E
:1014F8000BF00C6A0950046E036A0B5003240D6E3E
:101508000C5004200E6E0DC001F00EC002F0120047
:101518000001B15105E10D0E0001B05DD8A00CD05D
:10152800000E0001AD6F020EAC6FB2C0AEF0B3C0DA
:10153800AFF0E5EC0AF01200000E0001AD6F010EED
:10154800AC6FB2C0AEF0B3C0AFF0E5EC0AF0120079
:1015580037EC0BF00001B26F37EC0BF00001B36F02
:101568000001B351B2C0AEF00001AF6BAEC0AFF036
:101578000001AE6B0001AE110001B06F0001AF5168
:101588000001B16FB0C0ACF0B1C0ADF01200ACC09A
:10159800B2F0ADC0B3F009D0B2C0D9FFB3C0DAFF22
:1015A800AEC0DFFF0001B24BB32B0001B007D8A0DB
:1015B800B1070001B029F0E10001B129D8B4120047
:1015C800EBD70001AE050001AF11D8A403D08B8280
:1015D8008B8012000001AC050001AD11D8A403D026
:1015E8008B928B8012008B908B8212000F015C957E
:1015F8000F015C9193809382D08EF288F19CF292D5
:10160800F08CF086F19AF090F28CF28EF28E120045
:1016180003040410D8A403D08B828B801200010429
:101628000210D8A403D08B928B8012008B908B82EF
:101638001200ACC0AEF00001AD510001AF6FACA21A
:10164800FED7AEC0ADFFACA2FED7AFC0ADFF120053
:10165800C79EC79CC69EC688C696C694C682C690B4
:101668009D96C68A120005D0ABA203D0AB92AB9868
:10167800AB889EAAF9D7AE501200200EAC6E0C0EA5
:10168800AF6E000EA76EAB8EAB9CAB88120000014C
:10169800AC6FACA2FED7ACC0ADFF1200900E946E3A
:1016A8008B828B808B84120052EC0BF041EC0BF098
:0516B8001200010072A8
:020000040020DA
:08000000FFFFFFFFFFFFFFFF00
:020000040030CA
:0E00000015037F7CFF0991FF0FC00FE00F403A
:00000001FF
