:0400000082EF3AF061
:1074DE007AEC3AF08BEC3AF01200016EACA2FED7C9
:1074EE0001C0ADFF1200030E936E900E946E8B8250
:1074FE008B808B84120000EE60F0180EEE6AE806A8
:10750E00FDE10001C7EF3CF0200EAC6E0C0EAF6E2D
:10751E00000EA76EAB8EAB9CAB881200C79EC79CAD
:10752E00C69EC688C696C694C682C6909D96C68AC4
:10753E00120001C003F00250046EACA2FED703C0CD
:10754E00ADFFACA2FED704C0ADFF120003040410C1
:10755E00D8A403D08B828B80120001040210D8A411
:10756E0003D08B928B8012008B908B821200000EB8
:10757E001724196EE40E18201A6E19C001F01AC0E5
:10758E0002F0B0EC3BF001C01BF002C01CF01BC0BF
:10759E0017F01CC018F01200065004E10D0E055C29
:1075AE00D8A00BD0000E026E020E016E07C003F0C3
:1075BE0008C004F0ADEC3AF01200000E026E010E9F
:1075CE00016E07C003F008C004F0ADEC3AF01200F3
:1075DE0009C001F00AC002F0000E046E0A0E036E1E
:1075EE002EEC3CF001C00CF002C00DF008D01A0ECB
:1075FE000B6EF80EE82EFED70B2EFCD700D00C0625
:10760E00D8A00D060C28F3E10D28D8B41200EFD740
:10761E0017C001F018C002F0000E046E000E036ECB
:10762E00ADEC3AF0E40E026E170E016EB0EC3BF0CC
:10763E00040E196ED89002320132192EFBD7FF0EAE
:10764E0001141A6E0F0E02141B6E17C001F018C033
:10765E0002F0000E046E010E036EADEC3AF01AC08D
:10766E0017F01BC018F0120001500F6E106A01C007
:10767E0005F002C006F006C005F0066A0550116E50
:10768E00126A0350136E146A03C005F004C006F0AC
:10769E0006C005F0066A0550156E166A11C0C9FFC0
:1076AE00C7A0FED7C9CF07F0086A0FC0C9FFC7A091
:1076BE00FED7C9CF09F00A6A15C0C9FFC7A0FED709
:1076CE00C9CF0BF00C6A13C0C9FFC7A0FED7C9CF34
:1076DE000DF00E6A1200000E1E6E000E1D6E18507A
:1076EE0004E10D0E175CD8A007D0F40E17241D6E02
:1076FE00FF0E18201E6E04D017C01DF018C01EF00D
:10770E000A0E1D24196EE40E1E201A6E17C005F007
:10771E0018C006F0000E086E000E076ED3EC3AF09D
:10772E0019C001F01AC002F0B0EC3BF001C01BF022
:10773E0002C01CF017C005F018C006F0000E086E4F
:10774E00010E076ED3EC3AF01BC017F01CC018F0F8
:10775E001200000E106E000E0F6E000E126E000E56
:10776E00116E0150096E0A6A01C003F002C004F0E6
:10777E0004C003F0046A03500B6E0C6A0BC0C9FF01
:10778E00C7A0FED7C9CF05F0066A09C0C9FFC7A0BA
:10779E00FED7C9CF07F0086A11C0C9FFC7A0FED730
:1077AE00C9CF13F0146A0FC0C9FFC7A0FED7C9CF47
:1077BE0015F0166A1350046E036A155003240D6EED
:1077CE00165004200E6E0DC001F00EC002F0120015
:1077DE00000E226E000E216E000E246E000E236E21
:1077EE00000E266E000E256E2BD0255017241F6E10
:1077FE0026501820206E000E1F24216EE00E202031
:10780E00226E25501D241F6E26501E20206ED890ED
:10781E001F3620361F501B24D96E20501C20DA6EC6
:10782E00DECF23F0DDCF24F021C001F022C002F024
:10783E0023C003F024C004F03BEC3BF0254A262A7B
:10784E001950255C1A502658D8B01200CED7000E0B
:10785E00066E04AE06D0036C041ED8B0042A010EC8
:10786E00066E02AE06D0016C021ED8B0022A010EC0
:10787E00061A000E086E000E076E03500410D8B4E0
:10788E001CD0010E056E04D0D89003360436052A9E
:10789E0004AEFAD7D890073608360350015C045070
:1078AE000258D8A005D00350015E0450025A07803A
:1078BE00D89004320332052EEDD70650D8B404D03A
:1078CE00076C081ED8B0082A07C001F008C002F0E5
:1078DE00120017C001F018C002F0000E046E000E68
:1078EE00036EADEC3AF0200E1A6E000E196EE00E1D
:1078FE00026E050E016E19C003F01AC004F03BECC7
:10790E003BF0000E0A6E0A0E096EEFEC3AF017C04D
:10791E0001F018C002F0000E046E010E036EADEC05
:10792E003AF0030E0A6EE80E096EEFEC3AF017C04D
:10793E0001F018C002F0000E046E000E036EADECE6
:10794E003AF0300E1A6E000E196EE00E026E050E33
:10795E00016E19C003F01AC004F03BEC3BF0000EB0
:10796E000A6E0A0E096EEFEC3AF017C001F018C05D
:10797E0002F0000E046E010E036EADEC3AF0120032
:10798E00010E0A6EF40E096EEFEC3AF06FEC3AF05F
:10799E0095EC3AF0000E286E010E276E41EC3DF08C
:1079AE00000E286E020E276E41EC3DF0000E186E92
:1079BE00020E176E70EC3CF0000E186E010E176E74
:1079CE0070EC3CF0730E576E030E506EFC0E4F6E45
:1079DE00690E5718D8A413D0690E74EC3AF0000E45
:1079EE00186E020E176E0FEC3BF017C051F018C058
:1079FE0052F051C001F052C002F0A0EC3AF0730EFA
:107A0E005718D8A423D0730E74EC3AF0000E186EEB
:107A1E00010E176E72EC3BF017C053F018C054F005
:107A2E00000E186E0D0E176E72EC3BF017C055F06F
:107A3E0018C056F053C001F054C002F0A0EC3AF05A
:107A4E0055C001F056C002F0A0EC3AF0660E571881
:107A5E00D8A409D0660E74EC3AF04FC001F050C0B5
:107A6E0002F0A0EC3AF0000E0A6EC80E096EEFECB2
:107A7E003AF0AED727C001F028C002F0000E046E17
:107A8E00000E036EADEC3AF0FF0E406EFE0E3F6E32
:107A9E001F0E426E4168010E446E000E436E210EA3
:107AAE00466E210E456E0F0E486EA00E476E0F0EDF
:107ABE004A6EA00E496E100E4C6E9A0E4B6E100E44
:107ACE004E6E9A0E4D6E000E186E800E176E000ED4
:107ADE001A6E080E196E3F0E1B6E000E1C6E000EF7
:107AEE001E6E000E1D6EEFEC3BF03F6840683F0EC1
:107AFE00426E4168000E446E000E436E260E466EB8
:107B0E00260E456E0B0E486EB80E476E0B0E4A6E65
:107B1E00B80E496E0F0E4C6EA00E4B6E0F0E4E6EC3
:107B2E00A00E4D6E000E186E880E176E000E1A6E99
:107B3E00080E196E3F0E1B6E000E1C6E000E1E6E92
:107B4E00000E1D6EEFEC3BF03F6840683F0E426E3C
:107B5E004168000E446E000E436E260E466E260ED3
:107B6E00456E0B0E486EB80E476E0B0E4A6EB80E73
:107B7E00496E0F0E4C6EA00E4B6E0F0E4E6EA00E7B
:107B8E004D6E000E186E900E176E000E1A6E080EC9
:107B9E00196E3F0E1B6E000E1C6E000E1E6E000E3A
:107BAE001D6EEFEC3BF03F6840683F0E426E416841
:107BBE00000E446E000E436E260E466E260E456E69
:107BCE000B0E486EB80E476E0B0E4A6EB80E496E0F
:107BDE000F0E4C6EA00E4B6E0F0E4E6EA00E4D6E17
:107BEE00000E186E980E176E000E1A6E080E196E95
:107BFE003F0E1B6E000E1C6E000E1E6E000E1D6ED6
:107C0E00EFEC3BF03F6840683F0E426E4168000E5D
:107C1E00446E000E436E260E466E260E456E0B0EFD
:107C2E00486EB80E476E0B0E4A6EB80E496E0F0EAA
:107C3E004C6EA00E4B6E0F0E4E6EA00E4D6E000EC5
:107C4E00186EA00E176E000E1A6E080E196E3F0EED
:107C5E001B6E000E1C6E000E1E6E000E1D6EEFECE7
:107C6E003BF03F6840683F0E426E4168000E446E26
:107C7E00000E436E260E466E260E456E0B0E486E99
:107C8E00B80E476E0B0E4A6EB80E496E0F0E4C6E46
:107C9E00A00E4B6E0F0E4E6EA00E4D6E000E186E99
:107CAE00A80E176E000E1A6E080E196E3F0E1B6E82
:107CBE00000E1C6E000E1E6E000E1D6EEFEC3BF0E5
:107CCE003F6840683F0E426E4168000E446E000EE3
:107CDE00436E260E466E260E456E0B0E486EB80E81
:107CEE00476E0B0E4A6EB80E496E0F0E4C6EA00EFE
:107CFE004B6E0F0E4E6EA00E4D6E000E186EB00E29
:107D0E00176E000E1A6E080E196E3F0E1B6E000EC9
:107D1E001C6E000E1E6E000E1D6EEFEC3BF03F68EB
:107D2E0040683F0E426E4168000E446E000E436E78
:107D3E00260E466E260E456E0B0E486EB80E476E1C
:107D4E000B0E4A6EB80E496E0F0E4C6EA00E4B6E99
:107D5E000F0E4E6EA00E4D6E000E186EB80E176EF4
:107D6E00000E1A6E080E196E3F0E1B6E000E1C6E64
:107D7E00000E1E6E000E1D6EEFEC3BF03F6840686D
:107D8E003F0E426E4168000E446E000E436E260E8C
:107D9E00466E260E456E0B0E486EB80E476E0B0ED7
:107DAE004A6EB80E496E0F0E4C6EA00E4B6E0F0E35
:107DBE004E6EA00E4D6E000E186EC00E176E000E9B
:107DCE001A6E080E196E3F0E1B6E000E1C6E000E04
:107DDE001E6E000E1D6EEFEC3BF03F6840683F0ECE
:107DEE00426E4168000E446E000E436E260E466EC5
:107DFE00260E456E0B0E486EB80E476E0B0E4A6E73
:107E0E00B80E496E0F0E4C6EA00E4B6E0F0E4E6ED0
:107E1E00A00E4D6E000E186EC80E176E000E1A6E66
:107E2E00080E196E3F0E1B6E000E1C6E000E1E6E9F
:107E3E00000E1D6EEFEC3BF03F6840683F0E426E49
:107E4E004168000E446E000E436E260E466E260EE0
:107E5E00456E0B0E486EB80E476E0B0E4A6EB80E80
:107E6E00496E0F0E4C6EA00E4B6E0F0E4E6EA00E88
:107E7E004D6E000E186ED00E176E000E1A6E080E96
:107E8E00196E3F0E1B6E000E1C6E000E1E6E000E47
:107E9E001D6EEFEC3BF03F6840683F0E426E41684E
:107EAE00000E446E000E436E260E466E260E456E76
:107EBE000B0E486EB80E476E0B0E4A6EB80E496E1C
:107ECE000F0E4C6EA00E4B6E0F0E4E6EA00E4D6E24
:107EDE00000E186ED80E176E000E1A6E080E196E62
:107EEE003F0E1B6E000E1C6E000E1E6E000E1D6EE3
:107EFE00EFEC3BF0820E306EB20E2F6E000E186E4F
:107F0E00000E176E000E1A6E010E196E2F0E1B6EDE
:107F1E00000E1C6E000E1E6E000E1D6EEFEC3BF082
:107F2E00320E346E300E336E040E366E190E356E02
:107F3E00080E386E320E376E000E3A6E000E396E27
:107F4E00000E3C6E000E3B6E000E3E6E000E3D6E41
:107F5E00000E186E020E176E000E1A6E060E196EB9
:107F6E002F0E1B6E000E1C6E000E1E6E020E1D6E70
:107F7E00EFEC3BF0000E326E010E316E000E186EFD
:107F8E00010E176E000E1A6E010E196E2F0E1B6E5D
:107F9E00000E1C6E000E1E6E010E1D6EEFEC3BF001
:107FAE00000E186E080E176EBEEC3AF017C029F0D0
:107FBE0018C02AF0000E186E090E176EBEEC3AF0BD
:107FCE0017C02BF018C02CF0000E186E0A0E176E8C
:107FDE00BEEC3AF017C02DF018C02EF027C001F0FD
:107FEE0028C002F0000E046E010E036EADEC3AF0E6
:027FFE0012006F
:020000040020DA
:08000000FFFFFFFFFFFFFFFF00
:020000040030CA
:0E00000015037F7CFF8991FF0FC00FE00F40BA
:00000001FF
