:0400000052EF3AF091
:10747E004AEC3AF05BEC3AF01200016EACA2FED789
:10748E0001C0ADFF1200030E936E900E946E8B82B0
:10749E008B808B84120000EE89F0180EEE6AE806DF
:1074AE00FDE1000127EF3CF0200EAC6E0C0EAF6E2E
:1074BE00000EA76EAB8EAB9CAB881200C79EC79C0E
:1074CE00C69EC688C696C694C682C6909D96C68A25
:1074DE00120001C003F00250046EACA2FED703C02E
:1074EE00ADFFACA2FED704C0ADFF12000304041022
:1074FE00D8A403D08B828B80120001040210D8A472
:10750E0003D08B928B8012008B908B821200000E18
:10751E001724196EE40E18201A6E19C001F01AC045
:10752E0002F04FEC3BF001C01BF002C01CF01BC080
:10753E0017F01CC018F0120009C001F00AC002F0CA
:10754E00000E046E0A0E036E8EEC3BF001C00CF0C2
:10755E0002C00DF008D01A0E0B6EF80EE82EFED7F4
:10756E000B2EFCD700D00C06D8A00D060C28F3E18C
:10757E000D28D8B41200EFD7000E17241D6EE00EA2
:10758E0018201E6E000E206E000E1F6E17D01F509C
:10759E001D24016E20501E20026ED8901F34D96E0D
:1075AE002034DA6E1B50D9261C50DA22DECF03F0BF
:1075BE00DDCF04F018EC3BF01F4A202A19501F5C57
:1075CE001A502058D8B01200E2D717C001F018C0D8
:1075DE0002F0000E046E000E036E7DEC3AF0E40E27
:1075EE00026E170E016E4FEC3BF0040E196ED89022
:1075FE0002320132192EFBD7FF0E01141A6E0F0E36
:10760E0002141B6E17C001F018C002F0000E046EBB
:10761E00010E036E7DEC3AF01AC017F01BC018F085
:10762E00120001500F6E106A01C005F002C006F084
:10763E0006C005F0066A0550116E126A0350136EED
:10764E00146A03C005F004C006F006C005F0066A11
:10765E000550156E166A11C0C9FFC7A0FED7C9CF57
:10766E0007F0086A0FC0C9FFC7A0FED7C9CF09F03F
:10767E000A6A15C0C9FFC7A0FED7C9CF0BF00C6AA6
:10768E0013C0C9FFC7A0FED7C9CF0DF00E6A1200F6
:10769E00000E106E000E0F6E000E126E000E116EAA
:1076AE000150096E0A6A01C003F002C004F004C062
:1076BE0003F0046A03500B6E0C6A0BC0C9FFC7A01F
:1076CE00FED7C9CF05F0066A09C0C9FFC7A0FED70D
:1076DE00C9CF07F0086A11C0C9FFC7A0FED7C9CF2E
:1076EE0013F0146A0FC0C9FFC7A0FED7C9CF15F09B
:1076FE00166A1350046E036A155003240D6E16504D
:10770E0004200E6E0DC001F00EC002F01200000E2D
:10771E00066E04AE06D0036C041ED8B0042A010E09
:10772E00066E02AE06D0016C021ED8B0022A010E01
:10773E00061A000E086E000E076E03500410D8B421
:10774E001CD0010E056E04D0D89003360436052ADF
:10775E0004AEFAD7D890073608360350015C0450B1
:10776E000258D8A005D00350015E0450025A07807B
:10777E00D89004320332052EEDD70650D8B404D07B
:10778E00076C081ED8B0082A07C001F008C002F026
:10779E00120017C001F018C002F0000E046E000EA9
:1077AE00036E7DEC3AF0200E1A6E000E196EE00E8E
:1077BE00026E050E016E19C003F01AC004F018EC2B
:1077CE003BF0000E0A6E0A0E096EA3EC3AF017C0DB
:1077DE0001F018C002F0000E046E010E036E7DEC77
:1077EE003AF0030E0A6EE80E096EA3EC3AF017C0DB
:1077FE0001F018C002F0000E046E000E036E7DEC58
:10780E003AF0300E1A6E000E196EE00E026E050E74
:10781E00016E19C003F01AC004F018EC3BF0000E14
:10782E000A6E0A0E096EA3EC3AF017C001F018C0EA
:10783E0002F0000E046E010E036E7DEC3AF01200A3
:10784E00010E0A6EF40E096EA3EC3AF03FEC3AF01C
:10785E0065EC3AF0000E226E010E216E81EC3DF0C9
:10786E00000E226E020E216E81EC3DF0000E186E9F
:10787E00020E176ED0EC3BF0000E186E010E176E56
:10788E00D0EC3BF0730E0001886F030E0001816F88
:10789E00FC0E806F000E0001736F000E726F000EF3
:1078AE000001616F010E606FE40E0001836F0A0E1E
:1078BE00826FE40E0001856F080E846FE40E0001E6
:1078CE00876F090E866FE40E0001756F0B0E746FD5
:1078DE00E40E0001776F0C0E766FE40E0001796FE7
:1078EE000D0E786FE40E00017B6F0E0E7A6F000E98
:1078FE000001636F000E626F000E0001656F000ED7
:10790E00646F000E0001676F000E666F000E0001BF
:10791E00696F000E686F000E00016B6F000E6A6FCC
:10792E00000E00016D6F000E6C6F000E00016F6F88
:10793E00000E6E6F000E0001716F000E706F000E64
:10794E0000017F6F000E7E6F690E00018819D8A4AA
:10795E0013D0690E44EC3AF0000E186E010E176E3D
:10796E00ECEC3AF017C07CF018C07DF07CC001F052
:10797E007DC002F070EC3AF0730E00018819D8A4A5
:10798E00A4D0730E44EC3AF081B207D080C001F05F
:10799E0081C002F070EC3AF006D072C001F073C0F4
:1079AE0002F070EC3AF0000E026E020E016E000E46
:1079BE00046E000E036E7DEC3AF074C001F075C0DB
:1079CE0002F04FEC3BF001C06AF002C06BF076C0E3
:1079DE0001F077C002F04FEC3BF001C06CF002C03A
:1079EE006DF078C001F079C002F04FEC3BF001C0B1
:1079FE006EF002C06FF07AC001F07BC002F04FEC67
:107A0E003BF001C070F002C071F084C001F085C07F
:107A1E0002F04FEC3BF001C07EF002C07FF086C05A
:107A2E0001F087C002F04FEC3BF001C07EF002C0C7
:107A3E007FF082C001F083C002F04FEC3BF001C03A
:107A4E007EF002C07FF0000E026E020E016E000E7E
:107A5E00046E010E036E7DEC3AF0000E026E020E05
:107A6E00016E000E046E000E036E7DEC3AF084C0C3
:107A7E0001F085C002F04FEC3BF001C07EF002C079
:107A8E007FF086C001F087C002F04FEC3BF001C0E2
:107A9E007EF002C07FF082C001F083C002F04FEC96
:107AAE003BF001C07EF002C07FF0000E026E020EAF
:107ABE00016E000E046E010E036E7DEC3AF0000EA8
:107ACE000A6E640E096EA3EC3AF0660E0001881978
:107ADE00D8A409D0660E44EC3AF080C001F081C003
:107AEE0002F070EC3AF0010E0A6EF40E096EA3EC81
:107AFE003AF02AD721C001F022C002F0000E046E27
:107B0E00000E036E7DEC3AF0FF0E3A6EFE0E396EED
:107B1E001F0E3C6E3B68010E3E6E000E3D6E210E3A
:107B2E00406E210E3F6E0F0E426EA00E416E0F0E76
:107B3E00446EA00E436E100E466E9A0E456E100EDB
:107B4E00486E9A0E476E000E186E800E176E000E5F
:107B5E001A6E080E196E390E1B6E000E1C6EC3ECDB
:107B6E003AF03F0E3A6EFB0E396E1F0E3C6E3B68BE
:107B7E00010E3E6E000E3D6E210E406E210E3F6ECA
:107B8E000F0E426EA00E416E0F0E446EA00E436E8F
:107B9E00100E466E9A0E456E100E486E9A0E476E79
:107BAE00000E186E880E176E000E1A6E080E196EE5
:107BBE00390E1B6E000E1C6EC3EC3AF03F0E3A6E81
:107BCE00EF0E396E1F0E3C6E3B68010E3E6E000EC0
:107BDE003D6E210E406E210E3F6E0F0E426EA00EB8
:107BEE00416E0F0E446EA00E436E100E466E9A0E30
:107BFE00456E100E486E9A0E476E000E186E900E61
:107C0E00176E000E1A6E080E196E390E1B6E000ED0
:107C1E001C6EC3EC3AF03F0E3A6EBF0E396E1F0E5D
:107C2E003C6E3B68010E3E6E000E3D6E210E406EA8
:107C3E00210E3F6E0F0E426EA00E416E0F0E446E61
:107C4E00A00E436E100E466E9A0E456E100E486EC6
:107C5E009A0E476E000E186E980E176E000E1A6E64
:107C6E00080E196E390E1B6E000E1C6EC3EC3AF028
:107C7E0039683A683F0E3C6E3B68000E3E6E000E51
:107C8E003D6E260E406E260E3F6E0B0E426EB80EE9
:107C9E00416E0B0E446EB80E436E0F0E466EA00E66
:107CAE00456E0F0E486EA00E476E000E186EA00E9B
:107CBE00176E000E1A6E080E196E390E1B6E000E20
:107CCE001C6EC3EC3AF039683A683F0E3C6E3B6866
:107CDE00000E3E6E000E3D6E260E406E260E3F6E60
:107CEE000B0E426EB80E416E0B0E446EB80E436E06
:107CFE000F0E466EA00E456E0F0E486EA00E476E0E
:107D0E00000E186EA80E176E000E1A6E080E196E63
:107D1E00390E1B6E000E1C6EC3EC3AF039683A68D1
:107D2E003F0E3C6E3B68000E3E6E000E3D6E260E04
:107D3E00406E260E3F6E0B0E426EB80E416E0B0E4F
:107D4E00446EB80E436E0F0E466EA00E456E0F0EAD
:107D5E00486EA00E476E000E186EB00E176E000E17
:107D6E001A6E080E196E390E1B6E000E1C6EC3ECC9
:107D7E003AF039683A683F0E3C6EFE0E3B6E000ECE
:107D8E003E6E000E3D6E260E406E260E3F6E0B0EA4
:107D9E00426EB80E416E0B0E446EB80E436E0F0E51
:107DAE00466EA00E456E0F0E486EA00E476E000E6C
:107DBE00186EB80E176E000E1A6E080E196E390E6A
:107DCE001B6E000E1C6EC3EC3AF039683A683F0E1B
:107DDE003C6E3B68000E3E6E000E3D6E260E406EF3
:107DEE00260E3F6E0B0E426EB80E416E0B0E446E9B
:107DFE00B80E436E0F0E466EA00E456E0F0E486EF9
:107E0E00A00E476E000E186EC00E176E000E1A6E84
:107E1E00080E196E390E1B6E000E1C6EC3EC3AF076
:107E2E0039683A683F0E3C6E3B68000E3E6E000E9F
:107E3E003D6E260E406E260E3F6E0B0E426EB80E37
:107E4E00416E0B0E446EB80E436E0F0E466EA00EB4
:107E5E00456E0F0E486EA00E476E000E186EC80EC1
:107E6E00176E000E1A6E080E196E390E1B6E000E6E
:107E7E001C6EC3EC3AF039683A683F0E3C6E3B68B4
:107E8E00000E3E6E000E3D6E260E406E260E3F6EAE
:107E9E000B0E426EB80E416E0B0E446EB80E436E54
:107EAE000F0E466EA00E456E0F0E486EA00E476E5C
:107EBE00000E186ED00E176E000E1A6E080E196E8A
:107ECE00390E1B6E000E1C6EC3EC3AF039683A6820
:107EDE003F0E3C6E3B68000E3E6E000E3D6E260E53
:107EEE00406E260E3F6E0B0E426EB80E416E0B0E9E
:107EFE00446EB80E436E0F0E466EA00E456E0F0EFC
:107F0E00486EA00E476E000E186ED80E176E000E3D
:107F1E001A6E080E196E390E1B6E000E1C6EC3EC17
:107F2E003AF0820E2A6EB20E296E000E2C6E000EE4
:107F3E002B6E320E2E6E300E2D6E040E306E190E0E
:107F4E002F6E080E326E320E316E000E346E000E33
:107F5E00336E000E366E000E356E000E386E000E4D
:107F6E00376E000E186E000E176E000E1A6E080E8B
:107F7E00196E290E1B6E000E1C6EC3EC3AF00F0E1E
:107F8E002A6E2968000E186E010E176E000E1A6EFC
:107F9E00010E196E290E1B6E000E1C6EC3EC3AF00C
:107FAE00000E186E080E176E8EEC3AF017C023F006
:107FBE0018C024F0000E186E090E176E8EEC3AF0F3
:107FCE0017C025F018C026F0000E186E0A0E176E98
:107FDE008EEC3AF017C027F018C028F021C001F03F
:107FEE0022C002F0000E046E010E036E7DEC3AF01C
:027FFE0012006F
:020000040020DA
:08000000FFFFFFFFFFFFFFFF00
:020000040030CA
:0E00000015037F7CFF8991FF0FC00FE00F40BA
:00000001FF
