:0400000012EF3EF0CD
:107BFE000AEC3EF01BEC3EF01200016EACA2FED77A
:107C0E0001C0ADFF1200000E936E900E946E8B822B
:107C1E008B808B84120000EE26F0180EEE6AE806BA
:107C2E00FDE10001A2EF3FF0200EAC6E0C0EAF6E28
:107C3E00000EA76EAB8EAB9CAB881200C79EC79C86
:107C4E00C69EC688C696C694C682C6909D96C68A9D
:107C5E00120001C003F00250046EACA2FED703C0A6
:107C6E00ADFFACA2FED704C0ADFF1200035004104E
:107C7E00D8A408D001040210D8A402D08B9212000E
:107C8E008B90120001040210D8A402D08B82120035
:107C9E008B8012000B0E1724196EE40E18201A6E2C
:107CAE008B9219C001F01AC002F021EC3FF001C016
:107CBE001BF002C01CF08B821BC017F01CC018F00A
:107CCE00120009C001F00AC002F0000E046E0A0E86
:107CDE00036E60EC3FF001C00CF002C00DF008D056
:107CEE001A0E0B6EF80EE82EFED70B2EFCD700D018
:107CFE000C06D8A00D060C28F3E10D28D8B41200FE
:107D0E00EFD717C001F018C002F0000E046E000E7F
:107D1E00036E3DEC3EF0E40E026E170E016E21EC8A
:107D2E003FF0040E196ED89002320132192EFBD795
:107D3E00FF0E01141A6E0F0E02141B6E17C001F007
:107D4E0018C002F0000E046E010E036E3DEC3EF004
:107D5E001AC017F01BC018F0120019C001F01AC09B
:107D6E0002F0000E046E000E036E3DEC3EF01704A2
:107D7E001810D8A40FD0300E1C6E000E1B6EE00E25
:107D8E00026E050E016E1BC003F01CC004F0EAEC7F
:107D9E003EF00ED0200E1E6E000E1D6EE00E026E18
:107DAE00050E016E1DC003F01EC004F0EAEC3EF09D
:107DBE0019C001F01AC002F0000E046E000E036E20
:107DCE003DEC3EF0120001500F6E106A01C005F03E
:107DDE0002C006F006C005F0066A0550116E126A62
:107DEE000350136E146A03C005F004C006F006C0FB
:107DFE0005F0066A0550156E166A11C0C9FFC7A0B8
:107E0E00FED7C9CF07F0086A0FC0C9FFC7A0FED7BB
:107E1E00C9CF09F00A6A15C0C9FFC7A0FED7C9CFDE
:107E2E000BF00C6A13C0C9FFC7A0FED7C9CF0DF067
:107E3E000E6A1200000E106E000E0F6E000E126E05
:107E4E00000E116E0150096E0A6A01C003F002C0E5
:107E5E0004F004C003F0046A03500B6E0C6A0BC0EE
:107E6E00C9FFC7A0FED7C9CF05F0066A09C0C9FF72
:107E7E00C7A0FED7C9CF07F0086A11C0C9FFC7A0B7
:107E8E00FED7C9CF13F0146A0FC0C9FFC7A0FED723
:107E9E00C9CF15F0166A1350046E036A15500324E9
:107EAE000D6E165004200E6E0DC001F00EC002F0C5
:107EBE001200000E066E04AE06D0036C041ED8B07F
:107ECE00042A010E066E02AE06D0016C021ED8B058
:107EDE00022A010E061A000E086E000E076E0350DF
:107EEE000410D8B41CD0010E056E04D0D890033601
:107EFE000436052A04AEFAD7D89007360836035052
:107F0E00015C04500258D8A005D00350015E045005
:107F1E00025A0780D89004320332052EEDD7065050
:107F2E00D8B404D0076C081ED8B0082A07C001F0D8
:107F3E0008C002F01200010E0A6EF40E096E68EC13
:107F4E003EF0FFEC3DF025EC3EF0660E256E030E86
:107F5E00206EFC0E1F6E690E2518D8A413D0690E64
:107F6E0004EC3EF0000E186E020E176E88EC3EF01A
:107F7E0017C021F018C022F021C001F022C002F07B
:107F8E0030EC3EF06C0E256E000E186E010E176E64
:107F9E00000E1A6E010E196EB4EC3EF0730E25181B
:107FAE00D8A413D0730E04EC3EF0000E186E000E23
:107FBE00176E51EC3EF017C023F018C024F023C00A
:107FCE0001F024C002F030EC3EF0660E2518D8A465
:107FDE0009D0660E04EC3EF01FC001F020C002F086
:107FEE0030EC3EF0010E0A6EF40E096E68EC3EF0B7
:027FFE00B2D7F8
:020000040020DA
:08000000FFFFFFFFFFFFFFFF00
:020000040030CA
:0E00000015037F7CFF8991FF0FC00FE00F40BA
:00000001FF
