:030000000206E60F
:0F06E600787FE4F6D8FD75A00075812C0206CD53
:0306F5007D08FE7F
:0606F800852A1902043EF0
:1006B2007B017A0079007522007523087D027F088C
:0206C2007E00B8
:0906C40085220E85230F0204C5F6
:10043E00EE540344E0FEC2B4E4FCD2B5000000006A
:10044E0000000000000000EF25E0FFEE33FE92B743
:10045E00C2B500000000000000000000000CBC113E
:10046E00D9E4F51AF51BEDFFC3E51B9FE51A9400C1
:10047E00503EE51B25E0FFE51A338F82F58375F0BC
:10048E0002E5191205B012054BFFAEF0E4FCEF25A4
:10049E00E0FFEE33FE92B7C2B500000000D2B50009
:1004AE0000000CBC10E8051BE51B70BA051A80B6DF
:0604BE00D2B7D2B5D2B4A2
:0104C4002215
:0204C5008D0A9E
:1004C700EE540344E4FEC2B4E4FDD2B500000000DC
:1004D70000000000000000EF25E0FFEE33FE92B7BA
:1004E700C2B500000000000000000000000DBD11B3
:1004F700D9E4FCECC3950A5046E4FDC2B500A2B6A8
:10050700E433F510E51225E0F512E51133F511E5B1
:10051700104212D2B500000000000000000DBD100F
:10052700DAE50F25E0FFE50E338F82F58375F002DC
:10053700EC1205B0E5118512F01205830C80B4D2D8
:03054700B7D2B474
:01054A00228E
:1000060090003074FFF0A314F0A3741FF0A374FFE4
:10001600F0E4A3F0A3F07426A3F0A3F0A37401F018
:10002600A374F4F0A37401F0A374F4F0A37402F0C3
:10003600A37458F0A37402F0A37458F07B017A00FD
:100046007930E4F52A7F801206F590003074FFF0CF
:10005600A374FBF0A3741FF0A374FFF0E4A3F0A352
:10006600F07426A3F0A3F0A37403F0A37420F0A306
:100076007403F0A37420F0A37403F0A374B6F0A382
:100086007403F0A374B6F07B017A007930E4F52AA4
:100096007F881206F590003074FFF0A374EFF0A38A
:1000A600741FF0A374FFF0E4A3F0A3F07426A3F08A
:1000B600A3F0A37404F0A374B0F0A37404F0A374C3
:1000C600B0F0A37405F0A37478F0A37405F0A374DC
:1000D60078F07B017A007930E4F52A7D087F90FE7E
:1000E6001206F890003074FFF0A374BFF0A3741FDB
:1000F600F0A374FFF0E4A3F0A3F07426A3F0A3F03A
:10010600A37407F0A304F0A314F0A304F0A314F05F
:10011600A374D0F0A37407F0A374D0F07B017A0027
:100126007930E4F52A7D087F98FE1206F8900030B3
:1001360074FEF0A304F0A3741FF0A374FFF0E4A30D
:10014600F0A3F07426A3F0A3F0A37409F0A374C47B
:10015600F0A37409F0A374C4F0A3740AF0A3748C1A
:10016600F0A3740AF0A3748CF07B017A007930E472
:10017600F52A7D087FA0FE1206F890003074FBF089
:10018600A374FFF0A3741FF0A374FFF0E4A3F0A31D
:10019600F07426A3F0A3F0A3740BF0A374B8F0A335
:1001A600740BF0A374B8F0A3740DF0A37416F0A347
:1001B600740DF0A37416F07B017A007930E4F52A09
:1001C6007D087FA8FE1206F890003074EFF0A37445
:1001D600FFF0A3741FF0A374FFF0E4A3F0A3F07480
:1001E60026A3F0A3F0A37401F0A374F4F0A37401A2
:1001F600F0A374F4F0A37402F0A3748AF0A374025B
:10020600F0A3748AF07B017A007930E4F52A7D0840
:100216007FB0FE1206F874FF900030F0A3F0A374CE
:100226001FF0A374FEF0E4A3F0A3F07426A3F0A3DA
:10023600F0A37403F0A374E8F0A37403F0A374E8C6
:10024600F0A37404F0A3747EF0A37404F0A3747E88
:10025600F07B017A007930E4F52A7D087FB8FE123A
:1002660006F874FF900030F0A3F0A3741FF0A37497
:10027600FBF0E4A3F0A3F07426A3F0A3F0A37406A6
:10028600F0A37440F0A37406F0A37440F0A37407BF
:10029600F0A304F0A314F0A304F07B017A007930F4
:1002A600E4F52A7D087FC0FE1206F874FF90003040
:1002B600F0A3F0A3741FF0A374EFF0E4A3F0A3F08F
:1002C6007426A3F0A3F0A37408F0A37498F0A374A3
:1002D60008F0A37498F0A37409F0A37460F0A374F3
:1002E60009F0A37460F07B017A007930E4F52A7D89
:1002F600087FC8FE1206F874FF900030F0A3F0A342
:10030600741FF0A374BFF0E4A3F0A3F07426A3F067
:10031600A3F0A3740CF0A37480F0A3740CF0A37480
:1003260080F0A3740DF0A37448F0A3740DF0A374C9
:1003360048F07B017A007930E4F52A7D087FD0FE0B
:100346001206F874FF900030F0A3F0A3741EF0A319
:1003560074FFF0E4A3F0A3F07426A3F0A3F0A37453
:1003660010F0A37468F0A37410F0A37468F0A3747B
:1003760011F0A37430F0A37411F0A37430F07B0174
:100386007A007930E4F52A7D087FD8FE1206F890C7
:100396000000E4F0A374B2F07B017A007900E4F582
:1003A6002A7D01FFFE1206F81206B290000474328E
:1003B600F0A37430F0A37408F0A37419F0A37408C2
:1003C600F0A37432F0A3740FF0A374FFF0A3740FBC
:1003D600F0A374FFF0E4A3F0A3F07B017A007900A8
:1003E600752A027D067F02FE1206F8900002740F3F
:1003F600F0A374FFF07B017A007900752A017D0174
:100406007F017E001206F8900004E04440F0A3E06D
:10041600F07B017A007900752A027D017F027E0059
:100426001206F87B017A0079007522007523087D93
:08043600027F087E000206C4EB
:03000300020616DC
:10061600C0E0C0F0C083C082C0D075D000C000C0AA
:1006260001C002C003C004C005C006C007C2A812AC
:100636000686D2A8D007D006D005D004D003D002B3
:0F064600D001D000D0D0D082D083D0F0D0E0321D
:1006CD00D2B7D2B5D2B243AF01120006E4F52BF585
:0906DD002CD288D2A8D2AF80FE15
:100686001206B2900010E0540FFEA3E04E600DA3D8
:10069600E0540FFEA3E04E7003020655900012E0F0
:0C06A600FEA3E0FF1205BC8E2B8F2C225F
:100655007B017A0079007522007523027D017F02F6
:100665007E001206C4900004E04440F0A3E0F07B55
:10067500017A007900752A027D017F027E0002065B
:01068500F87C
:1005BC00E4FDFCEF30E0010DEF30E103430502EF09
:1005CC0030E203430504EF30E303430508EF30E466
:1005DC0003430510EF30E503430520EF30E60343FA
:1005EC000540EF30E703430580EE30E003430401A0
:1005FC00EE30E103430402EE30E203430404EE3038
:09060C00E303430408AE04AF054A
:0106150022C2
:10054B00BB0110E58229F582E5833AF583E0F5F0EE
:10055B00A3E0225009E92582F886F008E622BBFECB
:10056B000AE92582F8E2F5F008E222E5832AF58311
:08057B00E993F5F0A3E99322D6
:10058300F8BB0111E58229F582E5833AF583E8F0AA
:10059300E5F0A3F0225009E92582C8F608A6F02267
:0D05A300BBFE09E92582C8F2E5F008F2224E
:0C05B000A42582F582E5F03583F5832256
:00000001FF
